{
  "_format": "hh-sol-artifact-1",
  "contractName": "RandomIpfsNft",
  "sourceName": "contracts/RandomIpfsNft.sol",
  "abi": [
    {
      "inputs": [
        {
          "internalType": "address",
          "name": "vrfCoordinatorV2",
          "type": "address"
        },
        {
          "internalType": "uint64",
          "name": "subscriptionId",
          "type": "uint64"
        },
        {
          "internalType": "bytes32",
          "name": "gasLane",
          "type": "bytes32"
        },
        {
          "internalType": "uint256",
          "name": "mintFee",
          "type": "uint256"
        },
        {
          "internalType": "uint32",
          "name": "callbackGasLimit",
          "type": "uint32"
        },
        {
          "internalType": "string[3]",
          "name": "dogTokenUris",
          "type": "string[3]"
        }
      ],
      "stateMutability": "nonpayable",
      "type": "constructor"
    },
    {
      "inputs": [],
      "name": "AlreadyInitialized",
      "type": "error"
    },
    {
      "inputs": [],
      "name": "NeedMoreETHSent",
      "type": "error"
    },
    {
      "inputs": [
        {
          "internalType": "address",
          "name": "have",
          "type": "address"
        },
        {
          "internalType": "address",
          "name": "want",
          "type": "address"
        }
      ],
      "name": "OnlyCoordinatorCanFulfill",
      "type": "error"
    },
    {
      "inputs": [],
      "name": "RangeOutOfBounds",
      "type": "error"
    },
    {
      "anonymous": false,
      "inputs": [
        {
          "indexed": true,
          "internalType": "address",
          "name": "owner",
          "type": "address"
        },
        {
          "indexed": true,
          "internalType": "address",
          "name": "approved",
          "type": "address"
        },
        {
          "indexed": true,
          "internalType": "uint256",
          "name": "tokenId",
          "type": "uint256"
        }
      ],
      "name": "Approval",
      "type": "event"
    },
    {
      "anonymous": false,
      "inputs": [
        {
          "indexed": true,
          "internalType": "address",
          "name": "owner",
          "type": "address"
        },
        {
          "indexed": true,
          "internalType": "address",
          "name": "operator",
          "type": "address"
        },
        {
          "indexed": false,
          "internalType": "bool",
          "name": "approved",
          "type": "bool"
        }
      ],
      "name": "ApprovalForAll",
      "type": "event"
    },
    {
      "anonymous": false,
      "inputs": [
        {
          "indexed": false,
          "internalType": "enum RandomIpfsNft.Breed",
          "name": "breed",
          "type": "uint8"
        },
        {
          "indexed": false,
          "internalType": "address",
          "name": "minter",
          "type": "address"
        }
      ],
      "name": "NftMinted",
      "type": "event"
    },
    {
      "anonymous": false,
      "inputs": [
        {
          "indexed": true,
          "internalType": "uint256",
          "name": "requestId",
          "type": "uint256"
        },
        {
          "indexed": false,
          "internalType": "address",
          "name": "requester",
          "type": "address"
        }
      ],
      "name": "NftRequested",
      "type": "event"
    },
    {
      "anonymous": false,
      "inputs": [
        {
          "indexed": true,
          "internalType": "address",
          "name": "previousOwner",
          "type": "address"
        },
        {
          "indexed": true,
          "internalType": "address",
          "name": "newOwner",
          "type": "address"
        }
      ],
      "name": "OwnershipTransferred",
      "type": "event"
    },
    {
      "anonymous": false,
      "inputs": [
        {
          "indexed": true,
          "internalType": "address",
          "name": "from",
          "type": "address"
        },
        {
          "indexed": true,
          "internalType": "address",
          "name": "to",
          "type": "address"
        },
        {
          "indexed": true,
          "internalType": "uint256",
          "name": "tokenId",
          "type": "uint256"
        }
      ],
      "name": "Transfer",
      "type": "event"
    },
    {
      "inputs": [
        {
          "internalType": "address",
          "name": "to",
          "type": "address"
        },
        {
          "internalType": "uint256",
          "name": "tokenId",
          "type": "uint256"
        }
      ],
      "name": "approve",
      "outputs": [],
      "stateMutability": "nonpayable",
      "type": "function"
    },
    {
      "inputs": [
        {
          "internalType": "address",
          "name": "owner",
          "type": "address"
        }
      ],
      "name": "balanceOf",
      "outputs": [
        {
          "internalType": "uint256",
          "name": "",
          "type": "uint256"
        }
      ],
      "stateMutability": "view",
      "type": "function"
    },
    {
      "inputs": [
        {
          "internalType": "uint256",
          "name": "tokenId",
          "type": "uint256"
        }
      ],
      "name": "getApproved",
      "outputs": [
        {
          "internalType": "address",
          "name": "",
          "type": "address"
        }
      ],
      "stateMutability": "view",
      "type": "function"
    },
    {
      "inputs": [
        {
          "internalType": "uint256",
          "name": "moddedRng",
          "type": "uint256"
        }
      ],
      "name": "getBreedFromModdedRng",
      "outputs": [
        {
          "internalType": "enum RandomIpfsNft.Breed",
          "name": "",
          "type": "uint8"
        }
      ],
      "stateMutability": "pure",
      "type": "function"
    },
    {
      "inputs": [],
      "name": "getChanceArray",
      "outputs": [
        {
          "internalType": "uint256[3]",
          "name": "",
          "type": "uint256[3]"
        }
      ],
      "stateMutability": "pure",
      "type": "function"
    },
    {
      "inputs": [
        {
          "internalType": "uint256",
          "name": "index",
          "type": "uint256"
        }
      ],
      "name": "getDogTokenUris",
      "outputs": [
        {
          "internalType": "string",
          "name": "",
          "type": "string"
        }
      ],
      "stateMutability": "view",
      "type": "function"
    },
    {
      "inputs": [],
      "name": "getInitialized",
      "outputs": [
        {
          "internalType": "bool",
          "name": "",
          "type": "bool"
        }
      ],
      "stateMutability": "view",
      "type": "function"
    },
    {
      "inputs": [],
      "name": "getMintFee",
      "outputs": [
        {
          "internalType": "uint256",
          "name": "",
          "type": "uint256"
        }
      ],
      "stateMutability": "view",
      "type": "function"
    },
    {
      "inputs": [],
      "name": "getTokenCounter",
      "outputs": [
        {
          "internalType": "uint256",
          "name": "",
          "type": "uint256"
        }
      ],
      "stateMutability": "view",
      "type": "function"
    },
    {
      "inputs": [
        {
          "internalType": "address",
          "name": "owner",
          "type": "address"
        },
        {
          "internalType": "address",
          "name": "operator",
          "type": "address"
        }
      ],
      "name": "isApprovedForAll",
      "outputs": [
        {
          "internalType": "bool",
          "name": "",
          "type": "bool"
        }
      ],
      "stateMutability": "view",
      "type": "function"
    },
    {
      "inputs": [],
      "name": "name",
      "outputs": [
        {
          "internalType": "string",
          "name": "",
          "type": "string"
        }
      ],
      "stateMutability": "view",
      "type": "function"
    },
    {
      "inputs": [],
      "name": "owner",
      "outputs": [
        {
          "internalType": "address",
          "name": "",
          "type": "address"
        }
      ],
      "stateMutability": "view",
      "type": "function"
    },
    {
      "inputs": [
        {
          "internalType": "uint256",
          "name": "tokenId",
          "type": "uint256"
        }
      ],
      "name": "ownerOf",
      "outputs": [
        {
          "internalType": "address",
          "name": "",
          "type": "address"
        }
      ],
      "stateMutability": "view",
      "type": "function"
    },
    {
      "inputs": [
        {
          "internalType": "uint256",
          "name": "requestId",
          "type": "uint256"
        },
        {
          "internalType": "uint256[]",
          "name": "randomWords",
          "type": "uint256[]"
        }
      ],
      "name": "rawFulfillRandomWords",
      "outputs": [],
      "stateMutability": "nonpayable",
      "type": "function"
    },
    {
      "inputs": [],
      "name": "renounceOwnership",
      "outputs": [],
      "stateMutability": "nonpayable",
      "type": "function"
    },
    {
      "inputs": [],
      "name": "requestNft",
      "outputs": [
        {
          "internalType": "uint256",
          "name": "requestId",
          "type": "uint256"
        }
      ],
      "stateMutability": "payable",
      "type": "function"
    },
    {
      "inputs": [
        {
          "internalType": "uint256",
          "name": "",
          "type": "uint256"
        }
      ],
      "name": "s_requestIdToSender",
      "outputs": [
        {
          "internalType": "address",
          "name": "",
          "type": "address"
        }
      ],
      "stateMutability": "view",
      "type": "function"
    },
    {
      "inputs": [
        {
          "internalType": "address",
          "name": "from",
          "type": "address"
        },
        {
          "internalType": "address",
          "name": "to",
          "type": "address"
        },
        {
          "internalType": "uint256",
          "name": "tokenId",
          "type": "uint256"
        }
      ],
      "name": "safeTransferFrom",
      "outputs": [],
      "stateMutability": "nonpayable",
      "type": "function"
    },
    {
      "inputs": [
        {
          "internalType": "address",
          "name": "from",
          "type": "address"
        },
        {
          "internalType": "address",
          "name": "to",
          "type": "address"
        },
        {
          "internalType": "uint256",
          "name": "tokenId",
          "type": "uint256"
        },
        {
          "internalType": "bytes",
          "name": "data",
          "type": "bytes"
        }
      ],
      "name": "safeTransferFrom",
      "outputs": [],
      "stateMutability": "nonpayable",
      "type": "function"
    },
    {
      "inputs": [
        {
          "internalType": "address",
          "name": "operator",
          "type": "address"
        },
        {
          "internalType": "bool",
          "name": "approved",
          "type": "bool"
        }
      ],
      "name": "setApprovalForAll",
      "outputs": [],
      "stateMutability": "nonpayable",
      "type": "function"
    },
    {
      "inputs": [
        {
          "internalType": "bytes4",
          "name": "interfaceId",
          "type": "bytes4"
        }
      ],
      "name": "supportsInterface",
      "outputs": [
        {
          "internalType": "bool",
          "name": "",
          "type": "bool"
        }
      ],
      "stateMutability": "view",
      "type": "function"
    },
    {
      "inputs": [],
      "name": "symbol",
      "outputs": [
        {
          "internalType": "string",
          "name": "",
          "type": "string"
        }
      ],
      "stateMutability": "view",
      "type": "function"
    },
    {
      "inputs": [
        {
          "internalType": "uint256",
          "name": "tokenId",
          "type": "uint256"
        }
      ],
      "name": "tokenURI",
      "outputs": [
        {
          "internalType": "string",
          "name": "",
          "type": "string"
        }
      ],
      "stateMutability": "view",
      "type": "function"
    },
    {
      "inputs": [
        {
          "internalType": "address",
          "name": "from",
          "type": "address"
        },
        {
          "internalType": "address",
          "name": "to",
          "type": "address"
        },
        {
          "internalType": "uint256",
          "name": "tokenId",
          "type": "uint256"
        }
      ],
      "name": "transferFrom",
      "outputs": [],
      "stateMutability": "nonpayable",
      "type": "function"
    },
    {
      "inputs": [
        {
          "internalType": "address",
          "name": "newOwner",
          "type": "address"
        }
      ],
      "name": "transferOwnership",
      "outputs": [],
      "stateMutability": "nonpayable",
      "type": "function"
    },
    {
      "inputs": [],
      "name": "withdraw",
      "outputs": [],
      "stateMutability": "nonpayable",
      "type": "function"
    }
  ],
  "bytecode": "0x6101406040523480156200001257600080fd5b50604051620043fd380380620043fd833981810160405281019062000038919062000882565b856040518060400160405280600f81526020017f52616e646f6d2049504653204e465400000000000000000000000000000000008152506040518060400160405280600381526020017f52494e00000000000000000000000000000000000000000000000000000000008152508160009080519060200190620000bd92919062000315565b508060019080519060200190620000d692919062000315565b5050508073ffffffffffffffffffffffffffffffffffffffff1660808173ffffffffffffffffffffffffffffffffffffffff1660601b81525050506200013162000125620001cd60201b60201c565b620001d560201b60201c565b8573ffffffffffffffffffffffffffffffffffffffff1660a08173ffffffffffffffffffffffffffffffffffffffff1660601b815250508360e081815250508467ffffffffffffffff1660c08167ffffffffffffffff1660c01b815250508261012081815250508163ffffffff166101008163ffffffff1660e01b81525050620001c1816200029b60201b60201c565b505050505050620009a2565b600033905090565b6000600760009054906101000a900473ffffffffffffffffffffffffffffffffffffffff16905081600760006101000a81548173ffffffffffffffffffffffffffffffffffffffff021916908373ffffffffffffffffffffffffffffffffffffffff1602179055508173ffffffffffffffffffffffffffffffffffffffff168173ffffffffffffffffffffffffffffffffffffffff167f8be0079c531659141344cd1fd0a4f28419497f9722a3daafe3b4186f6b6457e060405160405180910390a35050565b600a60009054906101000a900460ff1615620002e3576040517f0dc149f000000000000000000000000000000000000000000000000000000000815260040160405180910390fd5b806009906003620002f6929190620003a6565b506001600a60006101000a81548160ff02191690831515021790555050565b82805462000323906200096c565b90600052602060002090601f01602090048101928262000347576000855562000393565b82601f106200036257805160ff191683800117855562000393565b8280016001018555821562000393579182015b828111156200039257825182559160200191906001019062000375565b5b509050620003a291906200040d565b5090565b828054828255906000526020600020908101928215620003fa579160200282015b82811115620003f9578251829080519060200190620003e892919062000315565b5091602001919060010190620003c7565b5b5090506200040991906200042c565b5090565b5b80821115620004285760008160009055506001016200040e565b5090565b5b8082111562000450576000818162000446919062000454565b506001016200042d565b5090565b50805462000462906200096c565b6000825580601f1062000476575062000497565b601f0160209004906000526020600020908101906200049691906200040d565b5b50565b6000604051905090565b600080fd5b600080fd5b600073ffffffffffffffffffffffffffffffffffffffff82169050919050565b6000620004db82620004ae565b9050919050565b620004ed81620004ce565b8114620004f957600080fd5b50565b6000815190506200050d81620004e2565b92915050565b600067ffffffffffffffff82169050919050565b620005328162000513565b81146200053e57600080fd5b50565b600081519050620005528162000527565b92915050565b6000819050919050565b6200056d8162000558565b81146200057957600080fd5b50565b6000815190506200058d8162000562565b92915050565b6000819050919050565b620005a88162000593565b8114620005b457600080fd5b50565b600081519050620005c8816200059d565b92915050565b600063ffffffff82169050919050565b620005e981620005ce565b8114620005f557600080fd5b50565b6000815190506200060981620005de565b92915050565b600080fd5b6000601f19601f8301169050919050565b7f4e487b7100000000000000000000000000000000000000000000000000000000600052604160045260246000fd5b6200065f8262000614565b810181811067ffffffffffffffff8211171562000681576200068062000625565b5b80604052505050565b6000620006966200049a565b9050620006a4828262000654565b919050565b600067ffffffffffffffff821115620006c757620006c662000625565b5b602082029050919050565b600080fd5b600080fd5b600067ffffffffffffffff821115620006fa57620006f962000625565b5b620007058262000614565b9050602081019050919050565b60005b838110156200073257808201518184015260208101905062000715565b8381111562000742576000848401525b50505050565b60006200075f6200075984620006dc565b6200068a565b9050828152602081018484840111156200077e576200077d620006d7565b5b6200078b84828562000712565b509392505050565b600082601f830112620007ab57620007aa6200060f565b5b8151620007bd84826020860162000748565b91505092915050565b6000620007dd620007d784620006a9565b6200068a565b90508060208402830185811115620007fa57620007f9620006d2565b5b835b818110156200084857805167ffffffffffffffff8111156200082357620008226200060f565b5b80860162000832898262000793565b85526020850194505050602081019050620007fc565b5050509392505050565b600082601f8301126200086a57620008696200060f565b5b600362000879848285620007c6565b91505092915050565b60008060008060008060c08789031215620008a257620008a1620004a4565b5b6000620008b289828a01620004fc565b9650506020620008c589828a0162000541565b9550506040620008d889828a016200057c565b9450506060620008eb89828a01620005b7565b9350506080620008fe89828a01620005f8565b92505060a087015167ffffffffffffffff811115620009225762000921620004a9565b5b6200093089828a0162000852565b9150509295509295509295565b7f4e487b7100000000000000000000000000000000000000000000000000000000600052602260045260246000fd5b600060028204905060018216806200098557607f821691505b602082108114156200099c576200099b6200093d565b5b50919050565b60805160601c60a05160601c60c05160c01c60e0516101005160e01c610120516139f162000a0c60003960008181610d790152610f720152600061104c015260006110080152600061102901526000610fcc015260008181610917015261096b01526139f16000f3fe6080604052600436106101815760003560e01c8063715018a6116100d1578063a51cccf31161008a578063c87b56dd11610064578063c87b56dd14610575578063e985e9c5146105b2578063ee89dab4146105ef578063f2fde38b1461061a57610181565b8063a51cccf3146104f1578063aa1524911461052e578063b88d4fde1461054c57610181565b8063715018a6146103f35780637a5caab31461040a5780638da5cb5b1461043557806395d89b4114610460578063a22cb4651461048b578063a36f573b146104b457610181565b80633af259751161013e5780635dacf5f4116101185780635dacf5f4146103235780636352211e1461034e5780636e02007d1461038b57806370a08231146103b657610181565b80633af25975146102a65780633ccfd60b146102e357806342842e0e146102fa57610181565b806301ffc9a71461018657806306fdde03146101c3578063081812fc146101ee578063095ea7b31461022b5780631fe543e31461025457806323b872dd1461027d575b600080fd5b34801561019257600080fd5b506101ad60048036038101906101a89190612533565b610643565b6040516101ba919061257b565b60405180910390f35b3480156101cf57600080fd5b506101d8610725565b6040516101e5919061262f565b60405180910390f35b3480156101fa57600080fd5b5061021560048036038101906102109190612687565b6107b7565b60405161022291906126f5565b60405180910390f35b34801561023757600080fd5b50610252600480360381019061024d919061273c565b6107fd565b005b34801561026057600080fd5b5061027b600480360381019061027691906128c4565b610915565b005b34801561028957600080fd5b506102a4600480360381019061029f9190612920565b6109d5565b005b3480156102b257600080fd5b506102cd60048036038101906102c89190612687565b610a35565b6040516102da919061262f565b60405180910390f35b3480156102ef57600080fd5b506102f8610ae5565b005b34801561030657600080fd5b50610321600480360381019061031c9190612920565b610ba2565b005b34801561032f57600080fd5b50610338610bc2565b6040516103459190612a1e565b60405180910390f35b34801561035a57600080fd5b5061037560048036038101906103709190612687565b610bed565b60405161038291906126f5565b60405180910390f35b34801561039757600080fd5b506103a0610c9f565b6040516103ad9190612a48565b60405180910390f35b3480156103c257600080fd5b506103dd60048036038101906103d89190612a63565b610ca9565b6040516103ea9190612a48565b60405180910390f35b3480156103ff57600080fd5b50610408610d61565b005b34801561041657600080fd5b5061041f610d75565b60405161042c9190612a48565b60405180910390f35b34801561044157600080fd5b5061044a610d9d565b60405161045791906126f5565b60405180910390f35b34801561046c57600080fd5b50610475610dc7565b604051610482919061262f565b60405180910390f35b34801561049757600080fd5b506104b260048036038101906104ad9190612abc565b610e59565b005b3480156104c057600080fd5b506104db60048036038101906104d69190612687565b610e6f565b6040516104e891906126f5565b60405180910390f35b3480156104fd57600080fd5b5061051860048036038101906105139190612687565b610ea2565b6040516105259190612b73565b60405180910390f35b610536610f6e565b6040516105439190612a48565b60405180910390f35b34801561055857600080fd5b50610573600480360381019061056e9190612c43565b61116e565b005b34801561058157600080fd5b5061059c60048036038101906105979190612687565b6111d0565b6040516105a9919061262f565b60405180910390f35b3480156105be57600080fd5b506105d960048036038101906105d49190612cc6565b6112e3565b6040516105e6919061257b565b60405180910390f35b3480156105fb57600080fd5b50610604611377565b604051610611919061257b565b60405180910390f35b34801561062657600080fd5b50610641600480360381019061063c9190612a63565b61138e565b005b60007f80ac58cd000000000000000000000000000000000000000000000000000000007bffffffffffffffffffffffffffffffffffffffffffffffffffffffff1916827bffffffffffffffffffffffffffffffffffffffffffffffffffffffff1916148061070e57507f5b5e139f000000000000000000000000000000000000000000000000000000007bffffffffffffffffffffffffffffffffffffffffffffffffffffffff1916827bffffffffffffffffffffffffffffffffffffffffffffffffffffffff1916145b8061071e575061071d82611412565b5b9050919050565b60606000805461073490612d35565b80601f016020809104026020016040519081016040528092919081815260200182805461076090612d35565b80156107ad5780601f10610782576101008083540402835291602001916107ad565b820191906000526020600020905b81548152906001019060200180831161079057829003601f168201915b5050505050905090565b60006107c28261147c565b6004600083815260200190815260200160002060009054906101000a900473ffffffffffffffffffffffffffffffffffffffff169050919050565b600061080882610bed565b90508073ffffffffffffffffffffffffffffffffffffffff168373ffffffffffffffffffffffffffffffffffffffff161415610879576040517f08c379a000000000000000000000000000000000000000000000000000000000815260040161087090612dd9565b60405180910390fd5b8073ffffffffffffffffffffffffffffffffffffffff166108986114c7565b73ffffffffffffffffffffffffffffffffffffffff1614806108c757506108c6816108c16114c7565b6112e3565b5b610906576040517f08c379a00000000000000000000000000000000000000000000000000000000081526004016108fd90612e6b565b60405180910390fd5b61091083836114cf565b505050565b7f000000000000000000000000000000000000000000000000000000000000000073ffffffffffffffffffffffffffffffffffffffff163373ffffffffffffffffffffffffffffffffffffffff16146109c757337f00000000000000000000000000000000000000000000000000000000000000006040517f1cf993f40000000000000000000000000000000000000000000000000000000081526004016109be929190612e8b565b60405180910390fd5b6109d18282611588565b5050565b6109e66109e06114c7565b82611722565b610a25576040517f08c379a0000000000000000000000000000000000000000000000000000000008152600401610a1c90612f26565b60405180910390fd5b610a308383836117b7565b505050565b606060098281548110610a4b57610a4a612f46565b5b906000526020600020018054610a6090612d35565b80601f0160208091040260200160405190810160405280929190818152602001828054610a8c90612d35565b8015610ad95780601f10610aae57610100808354040283529160200191610ad9565b820191906000526020600020905b815481529060010190602001808311610abc57829003601f168201915b50505050509050919050565b610aed611a1e565b600047905060003373ffffffffffffffffffffffffffffffffffffffff1682604051610b1890612fa6565b60006040518083038185875af1925050503d8060008114610b55576040519150601f19603f3d011682016040523d82523d6000602084013e610b5a565b606091505b5050905080610b9e576040517f08c379a0000000000000000000000000000000000000000000000000000000008152600401610b9590613007565b60405180910390fd5b5050565b610bbd8383836040518060200160405280600081525061116e565b505050565b610bca612402565b6040518060600160405280600a8152602001601e81526020016064815250905090565b6000806002600084815260200190815260200160002060009054906101000a900473ffffffffffffffffffffffffffffffffffffffff169050600073ffffffffffffffffffffffffffffffffffffffff168173ffffffffffffffffffffffffffffffffffffffff161415610c96576040517f08c379a0000000000000000000000000000000000000000000000000000000008152600401610c8d90613073565b60405180910390fd5b80915050919050565b6000600854905090565b60008073ffffffffffffffffffffffffffffffffffffffff168273ffffffffffffffffffffffffffffffffffffffff161415610d1a576040517f08c379a0000000000000000000000000000000000000000000000000000000008152600401610d1190613105565b60405180910390fd5b600360008373ffffffffffffffffffffffffffffffffffffffff1673ffffffffffffffffffffffffffffffffffffffff168152602001908152602001600020549050919050565b610d69611a1e565b610d736000611a9c565b565b60007f0000000000000000000000000000000000000000000000000000000000000000905090565b6000600760009054906101000a900473ffffffffffffffffffffffffffffffffffffffff16905090565b606060018054610dd690612d35565b80601f0160208091040260200160405190810160405280929190818152602001828054610e0290612d35565b8015610e4f5780601f10610e2457610100808354040283529160200191610e4f565b820191906000526020600020905b815481529060010190602001808311610e3257829003601f168201915b5050505050905090565b610e6b610e646114c7565b8383611b62565b5050565b600b6020528060005260406000206000915054906101000a900473ffffffffffffffffffffffffffffffffffffffff1681565b600080600090506000610eb3610bc2565b905060005b6003811015610f3657828510158015610ee75750818160038110610edf57610ede612f46565b5b602002015185105b15610f0957806002811115610eff57610efe612afc565b5b9350505050610f69565b818160038110610f1c57610f1b612f46565b5b602002015192508080610f2e90613154565b915050610eb8565b506040517f0655dc2500000000000000000000000000000000000000000000000000000000815260040160405180910390fd5b919050565b60007f0000000000000000000000000000000000000000000000000000000000000000341015610fca576040517f2e53d2d300000000000000000000000000000000000000000000000000000000815260040160405180910390fd5b7f000000000000000000000000000000000000000000000000000000000000000073ffffffffffffffffffffffffffffffffffffffff16635d3b1d307f00000000000000000000000000000000000000000000000000000000000000007f000000000000000000000000000000000000000000000000000000000000000060037f000000000000000000000000000000000000000000000000000000000000000060016040518663ffffffff1660e01b815260040161108d959493929190613215565b602060405180830381600087803b1580156110a757600080fd5b505af11580156110bb573d6000803e3d6000fd5b505050506040513d601f19601f820116820180604052508101906110df919061327d565b905033600b600083815260200190815260200160002060006101000a81548173ffffffffffffffffffffffffffffffffffffffff021916908373ffffffffffffffffffffffffffffffffffffffff160217905550807ff873236e6cc0ecc5be1a9a35c95ee5b8d1ac4cc7bfef0cc5060391d6cc98e26b3360405161116391906126f5565b60405180910390a290565b61117f6111796114c7565b83611722565b6111be576040517f08c379a00000000000000000000000000000000000000000000000000000000081526004016111b590612f26565b60405180910390fd5b6111ca84848484611ccf565b50505050565b60606111db8261147c565b60006006600084815260200190815260200160002080546111fb90612d35565b80601f016020809104026020016040519081016040528092919081815260200182805461122790612d35565b80156112745780601f1061124957610100808354040283529160200191611274565b820191906000526020600020905b81548152906001019060200180831161125757829003601f168201915b505050505090506000611285611d2b565b905060008151141561129b5781925050506112de565b6000825111156112d05780826040516020016112b89291906132e6565b604051602081830303815290604052925050506112de565b6112d984611d42565b925050505b919050565b6000600560008473ffffffffffffffffffffffffffffffffffffffff1673ffffffffffffffffffffffffffffffffffffffff16815260200190815260200160002060008373ffffffffffffffffffffffffffffffffffffffff1673ffffffffffffffffffffffffffffffffffffffff16815260200190815260200160002060009054906101000a900460ff16905092915050565b6000600a60009054906101000a900460ff16905090565b611396611a1e565b600073ffffffffffffffffffffffffffffffffffffffff168173ffffffffffffffffffffffffffffffffffffffff161415611406576040517f08c379a00000000000000000000000000000000000000000000000000000000081526004016113fd9061337c565b60405180910390fd5b61140f81611a9c565b50565b60007f01ffc9a7000000000000000000000000000000000000000000000000000000007bffffffffffffffffffffffffffffffffffffffffffffffffffffffff1916827bffffffffffffffffffffffffffffffffffffffffffffffffffffffff1916149050919050565b61148581611daa565b6114c4576040517f08c379a00000000000000000000000000000000000000000000000000000000081526004016114bb90613073565b60405180910390fd5b50565b600033905090565b816004600083815260200190815260200160002060006101000a81548173ffffffffffffffffffffffffffffffffffffffff021916908373ffffffffffffffffffffffffffffffffffffffff160217905550808273ffffffffffffffffffffffffffffffffffffffff1661154283610bed565b73ffffffffffffffffffffffffffffffffffffffff167f8c5be1e5ebec7d5bd14f71427d1e84f3dd0314c0f7b2291e5b200ac8c7c3b92560405160405180910390a45050565b6000600b600084815260200190815260200160002060009054906101000a900473ffffffffffffffffffffffffffffffffffffffff1690506000600854905060016008546115d6919061339c565b60088190555060006064846000815181106115f4576115f3612f46565b5b60200260200101516116069190613421565b9050600061161382610ea2565b905061161f8484611e16565b6116e183600983600281111561163857611637612afc565b5b8154811061164957611648612f46565b5b90600052602060002001805461165e90612d35565b80601f016020809104026020016040519081016040528092919081815260200182805461168a90612d35565b80156116d75780601f106116ac576101008083540402835291602001916116d7565b820191906000526020600020905b8154815290600101906020018083116116ba57829003601f168201915b5050505050611e34565b7f8a269f26b688e110e9cbd887d163dab35cae678fa353a0292de532c0cac1ecdc8185604051611712929190613452565b60405180910390a1505050505050565b60008061172e83610bed565b90508073ffffffffffffffffffffffffffffffffffffffff168473ffffffffffffffffffffffffffffffffffffffff161480611770575061176f81856112e3565b5b806117ae57508373ffffffffffffffffffffffffffffffffffffffff16611796846107b7565b73ffffffffffffffffffffffffffffffffffffffff16145b91505092915050565b8273ffffffffffffffffffffffffffffffffffffffff166117d782610bed565b73ffffffffffffffffffffffffffffffffffffffff161461182d576040517f08c379a0000000000000000000000000000000000000000000000000000000008152600401611824906134ed565b60405180910390fd5b600073ffffffffffffffffffffffffffffffffffffffff168273ffffffffffffffffffffffffffffffffffffffff16141561189d576040517f08c379a00000000000000000000000000000000000000000000000000000000081526004016118949061357f565b60405180910390fd5b6118a8838383611ea8565b6118b36000826114cf565b6001600360008573ffffffffffffffffffffffffffffffffffffffff1673ffffffffffffffffffffffffffffffffffffffff1681526020019081526020016000206000828254611903919061359f565b925050819055506001600360008473ffffffffffffffffffffffffffffffffffffffff1673ffffffffffffffffffffffffffffffffffffffff168152602001908152602001600020600082825461195a919061339c565b92505081905550816002600083815260200190815260200160002060006101000a81548173ffffffffffffffffffffffffffffffffffffffff021916908373ffffffffffffffffffffffffffffffffffffffff160217905550808273ffffffffffffffffffffffffffffffffffffffff168473ffffffffffffffffffffffffffffffffffffffff167fddf252ad1be2c89b69c2b068fc378daa952ba7f163c4a11628f55a4df523b3ef60405160405180910390a4611a19838383611ead565b505050565b611a266114c7565b73ffffffffffffffffffffffffffffffffffffffff16611a44610d9d565b73ffffffffffffffffffffffffffffffffffffffff1614611a9a576040517f08c379a0000000000000000000000000000000000000000000000000000000008152600401611a919061361f565b60405180910390fd5b565b6000600760009054906101000a900473ffffffffffffffffffffffffffffffffffffffff16905081600760006101000a81548173ffffffffffffffffffffffffffffffffffffffff021916908373ffffffffffffffffffffffffffffffffffffffff1602179055508173ffffffffffffffffffffffffffffffffffffffff168173ffffffffffffffffffffffffffffffffffffffff167f8be0079c531659141344cd1fd0a4f28419497f9722a3daafe3b4186f6b6457e060405160405180910390a35050565b8173ffffffffffffffffffffffffffffffffffffffff168373ffffffffffffffffffffffffffffffffffffffff161415611bd1576040517f08c379a0000000000000000000000000000000000000000000000000000000008152600401611bc89061368b565b60405180910390fd5b80600560008573ffffffffffffffffffffffffffffffffffffffff1673ffffffffffffffffffffffffffffffffffffffff16815260200190815260200160002060008473ffffffffffffffffffffffffffffffffffffffff1673ffffffffffffffffffffffffffffffffffffffff16815260200190815260200160002060006101000a81548160ff0219169083151502179055508173ffffffffffffffffffffffffffffffffffffffff168373ffffffffffffffffffffffffffffffffffffffff167f17307eab39ab6107e8899845ad3d59bd9653f200f220920489ca2b5937696c3183604051611cc2919061257b565b60405180910390a3505050565b611cda8484846117b7565b611ce684848484611eb2565b611d25576040517f08c379a0000000000000000000000000000000000000000000000000000000008152600401611d1c9061371d565b60405180910390fd5b50505050565b606060405180602001604052806000815250905090565b6060611d4d8261147c565b6000611d57611d2b565b90506000815111611d775760405180602001604052806000815250611da2565b80611d8184612049565b604051602001611d929291906132e6565b6040516020818303038152906040525b915050919050565b60008073ffffffffffffffffffffffffffffffffffffffff166002600084815260200190815260200160002060009054906101000a900473ffffffffffffffffffffffffffffffffffffffff1673ffffffffffffffffffffffffffffffffffffffff1614159050919050565b611e308282604051806020016040528060008152506121aa565b5050565b611e3d82611daa565b611e7c576040517f08c379a0000000000000000000000000000000000000000000000000000000008152600401611e73906137af565b60405180910390fd5b80600660008481526020019081526020016000209080519060200190611ea3929190612424565b505050565b505050565b505050565b6000611ed38473ffffffffffffffffffffffffffffffffffffffff16612205565b1561203c578373ffffffffffffffffffffffffffffffffffffffff1663150b7a02611efc6114c7565b8786866040518563ffffffff1660e01b8152600401611f1e9493929190613824565b602060405180830381600087803b158015611f3857600080fd5b505af1925050508015611f6957506040513d601f19601f82011682018060405250810190611f669190613885565b60015b611fec573d8060008114611f99576040519150601f19603f3d011682016040523d82523d6000602084013e611f9e565b606091505b50600081511415611fe4576040517f08c379a0000000000000000000000000000000000000000000000000000000008152600401611fdb9061371d565b60405180910390fd5b805181602001fd5b63150b7a0260e01b7bffffffffffffffffffffffffffffffffffffffffffffffffffffffff1916817bffffffffffffffffffffffffffffffffffffffffffffffffffffffff191614915050612041565b600190505b949350505050565b60606000821415612091576040518060400160405280600181526020017f300000000000000000000000000000000000000000000000000000000000000081525090506121a5565b600082905060005b600082146120c35780806120ac90613154565b915050600a826120bc91906138b2565b9150612099565b60008167ffffffffffffffff8111156120df576120de612781565b5b6040519080825280601f01601f1916602001820160405280156121115781602001600182028036833780820191505090505b5090505b6000851461219e5760018261212a919061359f565b9150600a856121399190613421565b6030612145919061339c565b60f81b81838151811061215b5761215a612f46565b5b60200101907effffffffffffffffffffffffffffffffffffffffffffffffffffffffffffff1916908160001a905350600a8561219791906138b2565b9450612115565b8093505050505b919050565b6121b48383612228565b6121c16000848484611eb2565b612200576040517f08c379a00000000000000000000000000000000000000000000000000000000081526004016121f79061371d565b60405180910390fd5b505050565b6000808273ffffffffffffffffffffffffffffffffffffffff163b119050919050565b600073ffffffffffffffffffffffffffffffffffffffff168273ffffffffffffffffffffffffffffffffffffffff161415612298576040517f08c379a000000000000000000000000000000000000000000000000000000000815260040161228f9061392f565b60405180910390fd5b6122a181611daa565b156122e1576040517f08c379a00000000000000000000000000000000000000000000000000000000081526004016122d89061399b565b60405180910390fd5b6122ed60008383611ea8565b6001600360008473ffffffffffffffffffffffffffffffffffffffff1673ffffffffffffffffffffffffffffffffffffffff168152602001908152602001600020600082825461233d919061339c565b92505081905550816002600083815260200190815260200160002060006101000a81548173ffffffffffffffffffffffffffffffffffffffff021916908373ffffffffffffffffffffffffffffffffffffffff160217905550808273ffffffffffffffffffffffffffffffffffffffff16600073ffffffffffffffffffffffffffffffffffffffff167fddf252ad1be2c89b69c2b068fc378daa952ba7f163c4a11628f55a4df523b3ef60405160405180910390a46123fe60008383611ead565b5050565b6040518060600160405280600390602082028036833780820191505090505090565b82805461243090612d35565b90600052602060002090601f0160209004810192826124525760008555612499565b82601f1061246b57805160ff1916838001178555612499565b82800160010185558215612499579182015b8281111561249857825182559160200191906001019061247d565b5b5090506124a691906124aa565b5090565b5b808211156124c35760008160009055506001016124ab565b5090565b6000604051905090565b600080fd5b600080fd5b60007fffffffff0000000000000000000000000000000000000000000000000000000082169050919050565b612510816124db565b811461251b57600080fd5b50565b60008135905061252d81612507565b92915050565b600060208284031215612549576125486124d1565b5b60006125578482850161251e565b91505092915050565b60008115159050919050565b61257581612560565b82525050565b6000602082019050612590600083018461256c565b92915050565b600081519050919050565b600082825260208201905092915050565b60005b838110156125d05780820151818401526020810190506125b5565b838111156125df576000848401525b50505050565b6000601f19601f8301169050919050565b600061260182612596565b61260b81856125a1565b935061261b8185602086016125b2565b612624816125e5565b840191505092915050565b6000602082019050818103600083015261264981846125f6565b905092915050565b6000819050919050565b61266481612651565b811461266f57600080fd5b50565b6000813590506126818161265b565b92915050565b60006020828403121561269d5761269c6124d1565b5b60006126ab84828501612672565b91505092915050565b600073ffffffffffffffffffffffffffffffffffffffff82169050919050565b60006126df826126b4565b9050919050565b6126ef816126d4565b82525050565b600060208201905061270a60008301846126e6565b92915050565b612719816126d4565b811461272457600080fd5b50565b60008135905061273681612710565b92915050565b60008060408385031215612753576127526124d1565b5b600061276185828601612727565b925050602061277285828601612672565b9150509250929050565b600080fd5b7f4e487b7100000000000000000000000000000000000000000000000000000000600052604160045260246000fd5b6127b9826125e5565b810181811067ffffffffffffffff821117156127d8576127d7612781565b5b80604052505050565b60006127eb6124c7565b90506127f782826127b0565b919050565b600067ffffffffffffffff82111561281757612816612781565b5b602082029050602081019050919050565b600080fd5b600061284061283b846127fc565b6127e1565b9050808382526020820190506020840283018581111561286357612862612828565b5b835b8181101561288c57806128788882612672565b845260208401935050602081019050612865565b5050509392505050565b600082601f8301126128ab576128aa61277c565b5b81356128bb84826020860161282d565b91505092915050565b600080604083850312156128db576128da6124d1565b5b60006128e985828601612672565b925050602083013567ffffffffffffffff81111561290a576129096124d6565b5b61291685828601612896565b9150509250929050565b600080600060608486031215612939576129386124d1565b5b600061294786828701612727565b935050602061295886828701612727565b925050604061296986828701612672565b9150509250925092565b600060039050919050565b600081905092915050565b6000819050919050565b61299c81612651565b82525050565b60006129ae8383612993565b60208301905092915050565b6000602082019050919050565b6129d081612973565b6129da818461297e565b92506129e582612989565b8060005b83811015612a165781516129fd87826129a2565b9650612a08836129ba565b9250506001810190506129e9565b505050505050565b6000606082019050612a3360008301846129c7565b92915050565b612a4281612651565b82525050565b6000602082019050612a5d6000830184612a39565b92915050565b600060208284031215612a7957612a786124d1565b5b6000612a8784828501612727565b91505092915050565b612a9981612560565b8114612aa457600080fd5b50565b600081359050612ab681612a90565b92915050565b60008060408385031215612ad357612ad26124d1565b5b6000612ae185828601612727565b9250506020612af285828601612aa7565b9150509250929050565b7f4e487b7100000000000000000000000000000000000000000000000000000000600052602160045260246000fd5b60038110612b3c57612b3b612afc565b5b50565b6000819050612b4d82612b2b565b919050565b6000612b5d82612b3f565b9050919050565b612b6d81612b52565b82525050565b6000602082019050612b886000830184612b64565b92915050565b600080fd5b600067ffffffffffffffff821115612bae57612bad612781565b5b612bb7826125e5565b9050602081019050919050565b82818337600083830152505050565b6000612be6612be184612b93565b6127e1565b905082815260208101848484011115612c0257612c01612b8e565b5b612c0d848285612bc4565b509392505050565b600082601f830112612c2a57612c2961277c565b5b8135612c3a848260208601612bd3565b91505092915050565b60008060008060808587031215612c5d57612c5c6124d1565b5b6000612c6b87828801612727565b9450506020612c7c87828801612727565b9350506040612c8d87828801612672565b925050606085013567ffffffffffffffff811115612cae57612cad6124d6565b5b612cba87828801612c15565b91505092959194509250565b60008060408385031215612cdd57612cdc6124d1565b5b6000612ceb85828601612727565b9250506020612cfc85828601612727565b9150509250929050565b7f4e487b7100000000000000000000000000000000000000000000000000000000600052602260045260246000fd5b60006002820490506001821680612d4d57607f821691505b60208210811415612d6157612d60612d06565b5b50919050565b7f4552433732313a20617070726f76616c20746f2063757272656e74206f776e6560008201527f7200000000000000000000000000000000000000000000000000000000000000602082015250565b6000612dc36021836125a1565b9150612dce82612d67565b604082019050919050565b60006020820190508181036000830152612df281612db6565b9050919050565b7f4552433732313a20617070726f76652063616c6c6572206973206e6f7420746f60008201527f6b656e206f776e6572206e6f7220617070726f76656420666f7220616c6c0000602082015250565b6000612e55603e836125a1565b9150612e6082612df9565b604082019050919050565b60006020820190508181036000830152612e8481612e48565b9050919050565b6000604082019050612ea060008301856126e6565b612ead60208301846126e6565b9392505050565b7f4552433732313a2063616c6c6572206973206e6f7420746f6b656e206f776e6560008201527f72206e6f7220617070726f766564000000000000000000000000000000000000602082015250565b6000612f10602e836125a1565b9150612f1b82612eb4565b604082019050919050565b60006020820190508181036000830152612f3f81612f03565b9050919050565b7f4e487b7100000000000000000000000000000000000000000000000000000000600052603260045260246000fd5b600081905092915050565b50565b6000612f90600083612f75565b9150612f9b82612f80565b600082019050919050565b6000612fb182612f83565b9150819050919050565b7f5472616e73666572206661696c65640000000000000000000000000000000000600082015250565b6000612ff1600f836125a1565b9150612ffc82612fbb565b602082019050919050565b6000602082019050818103600083015261302081612fe4565b9050919050565b7f4552433732313a20696e76616c696420746f6b656e2049440000000000000000600082015250565b600061305d6018836125a1565b915061306882613027565b602082019050919050565b6000602082019050818103600083015261308c81613050565b9050919050565b7f4552433732313a2061646472657373207a65726f206973206e6f74206120766160008201527f6c6964206f776e65720000000000000000000000000000000000000000000000602082015250565b60006130ef6029836125a1565b91506130fa82613093565b604082019050919050565b6000602082019050818103600083015261311e816130e2565b9050919050565b7f4e487b7100000000000000000000000000000000000000000000000000000000600052601160045260246000fd5b600061315f82612651565b91507fffffffffffffffffffffffffffffffffffffffffffffffffffffffffffffffff82141561319257613191613125565b5b600182019050919050565b6000819050919050565b6131b08161319d565b82525050565b600067ffffffffffffffff82169050919050565b6131d3816131b6565b82525050565b600061ffff82169050919050565b6131f0816131d9565b82525050565b600063ffffffff82169050919050565b61320f816131f6565b82525050565b600060a08201905061322a60008301886131a7565b61323760208301876131ca565b61324460408301866131e7565b6132516060830185613206565b61325e6080830184613206565b9695505050505050565b6000815190506132778161265b565b92915050565b600060208284031215613293576132926124d1565b5b60006132a184828501613268565b91505092915050565b600081905092915050565b60006132c082612596565b6132ca81856132aa565b93506132da8185602086016125b2565b80840191505092915050565b60006132f282856132b5565b91506132fe82846132b5565b91508190509392505050565b7f4f776e61626c653a206e6577206f776e657220697320746865207a65726f206160008201527f6464726573730000000000000000000000000000000000000000000000000000602082015250565b60006133666026836125a1565b91506133718261330a565b604082019050919050565b6000602082019050818103600083015261339581613359565b9050919050565b60006133a782612651565b91506133b283612651565b9250827fffffffffffffffffffffffffffffffffffffffffffffffffffffffffffffffff038211156133e7576133e6613125565b5b828201905092915050565b7f4e487b7100000000000000000000000000000000000000000000000000000000600052601260045260246000fd5b600061342c82612651565b915061343783612651565b925082613447576134466133f2565b5b828206905092915050565b60006040820190506134676000830185612b64565b61347460208301846126e6565b9392505050565b7f4552433732313a207472616e736665722066726f6d20696e636f72726563742060008201527f6f776e6572000000000000000000000000000000000000000000000000000000602082015250565b60006134d76025836125a1565b91506134e28261347b565b604082019050919050565b60006020820190508181036000830152613506816134ca565b9050919050565b7f4552433732313a207472616e7366657220746f20746865207a65726f2061646460008201527f7265737300000000000000000000000000000000000000000000000000000000602082015250565b60006135696024836125a1565b91506135748261350d565b604082019050919050565b600060208201905081810360008301526135988161355c565b9050919050565b60006135aa82612651565b91506135b583612651565b9250828210156135c8576135c7613125565b5b828203905092915050565b7f4f776e61626c653a2063616c6c6572206973206e6f7420746865206f776e6572600082015250565b60006136096020836125a1565b9150613614826135d3565b602082019050919050565b60006020820190508181036000830152613638816135fc565b9050919050565b7f4552433732313a20617070726f766520746f2063616c6c657200000000000000600082015250565b60006136756019836125a1565b91506136808261363f565b602082019050919050565b600060208201905081810360008301526136a481613668565b9050919050565b7f4552433732313a207472616e7366657220746f206e6f6e20455243373231526560008201527f63656976657220696d706c656d656e7465720000000000000000000000000000602082015250565b60006137076032836125a1565b9150613712826136ab565b604082019050919050565b60006020820190508181036000830152613736816136fa565b9050919050565b7f45524337323155524953746f726167653a2055524920736574206f66206e6f6e60008201527f6578697374656e7420746f6b656e000000000000000000000000000000000000602082015250565b6000613799602e836125a1565b91506137a48261373d565b604082019050919050565b600060208201905081810360008301526137c88161378c565b9050919050565b600081519050919050565b600082825260208201905092915050565b60006137f6826137cf565b61380081856137da565b93506138108185602086016125b2565b613819816125e5565b840191505092915050565b600060808201905061383960008301876126e6565b61384660208301866126e6565b6138536040830185612a39565b818103606083015261386581846137eb565b905095945050505050565b60008151905061387f81612507565b92915050565b60006020828403121561389b5761389a6124d1565b5b60006138a984828501613870565b91505092915050565b60006138bd82612651565b91506138c883612651565b9250826138d8576138d76133f2565b5b828204905092915050565b7f4552433732313a206d696e7420746f20746865207a65726f2061646472657373600082015250565b60006139196020836125a1565b9150613924826138e3565b602082019050919050565b600060208201905081810360008301526139488161390c565b9050919050565b7f4552433732313a20746f6b656e20616c7265616479206d696e74656400000000600082015250565b6000613985601c836125a1565b91506139908261394f565b602082019050919050565b600060208201905081810360008301526139b481613978565b905091905056fea2646970667358221220a3173b561ba2a7a73b61729d6ddd4a78c1f404b1d93b8615315c8f54ea6f418064736f6c63430008080033",
  "linkReferences": {},
  "deployedLinkReferences": {}
}