{
  "_format": "hh-sol-artifact-1",
  "contractName": "DynamicSvgNft",
  "sourceName": "contracts/DynamicSvgNft.sol",
  "abi": [
    {
      "inputs": [
        {
          "internalType": "address",
          "name": "priceFeedAddress",
          "type": "address"
        },
        {
          "internalType": "string",
          "name": "lowSvg",
          "type": "string"
        },
        {
          "internalType": "string",
          "name": "highSvg",
          "type": "string"
        }
      ],
      "stateMutability": "nonpayable",
      "type": "constructor"
    },
    {
      "inputs": [],
      "name": "ERC721Metadata__URI_QueryFor_NonExistentToken",
      "type": "error"
    },
    {
      "anonymous": false,
      "inputs": [
        {
          "indexed": true,
          "internalType": "address",
          "name": "owner",
          "type": "address"
        },
        {
          "indexed": true,
          "internalType": "address",
          "name": "approved",
          "type": "address"
        },
        {
          "indexed": true,
          "internalType": "uint256",
          "name": "tokenId",
          "type": "uint256"
        }
      ],
      "name": "Approval",
      "type": "event"
    },
    {
      "anonymous": false,
      "inputs": [
        {
          "indexed": true,
          "internalType": "address",
          "name": "owner",
          "type": "address"
        },
        {
          "indexed": true,
          "internalType": "address",
          "name": "operator",
          "type": "address"
        },
        {
          "indexed": false,
          "internalType": "bool",
          "name": "approved",
          "type": "bool"
        }
      ],
      "name": "ApprovalForAll",
      "type": "event"
    },
    {
      "anonymous": false,
      "inputs": [
        {
          "indexed": true,
          "internalType": "uint256",
          "name": "tokenId",
          "type": "uint256"
        },
        {
          "indexed": false,
          "internalType": "int256",
          "name": "highValue",
          "type": "int256"
        }
      ],
      "name": "CreatedNFT",
      "type": "event"
    },
    {
      "anonymous": false,
      "inputs": [
        {
          "indexed": true,
          "internalType": "address",
          "name": "previousOwner",
          "type": "address"
        },
        {
          "indexed": true,
          "internalType": "address",
          "name": "newOwner",
          "type": "address"
        }
      ],
      "name": "OwnershipTransferred",
      "type": "event"
    },
    {
      "anonymous": false,
      "inputs": [
        {
          "indexed": true,
          "internalType": "address",
          "name": "from",
          "type": "address"
        },
        {
          "indexed": true,
          "internalType": "address",
          "name": "to",
          "type": "address"
        },
        {
          "indexed": true,
          "internalType": "uint256",
          "name": "tokenId",
          "type": "uint256"
        }
      ],
      "name": "Transfer",
      "type": "event"
    },
    {
      "inputs": [
        {
          "internalType": "address",
          "name": "to",
          "type": "address"
        },
        {
          "internalType": "uint256",
          "name": "tokenId",
          "type": "uint256"
        }
      ],
      "name": "approve",
      "outputs": [],
      "stateMutability": "nonpayable",
      "type": "function"
    },
    {
      "inputs": [
        {
          "internalType": "address",
          "name": "owner",
          "type": "address"
        }
      ],
      "name": "balanceOf",
      "outputs": [
        {
          "internalType": "uint256",
          "name": "",
          "type": "uint256"
        }
      ],
      "stateMutability": "view",
      "type": "function"
    },
    {
      "inputs": [
        {
          "internalType": "uint256",
          "name": "tokenId",
          "type": "uint256"
        }
      ],
      "name": "getApproved",
      "outputs": [
        {
          "internalType": "address",
          "name": "",
          "type": "address"
        }
      ],
      "stateMutability": "view",
      "type": "function"
    },
    {
      "inputs": [],
      "name": "getHighSVG",
      "outputs": [
        {
          "internalType": "string",
          "name": "",
          "type": "string"
        }
      ],
      "stateMutability": "view",
      "type": "function"
    },
    {
      "inputs": [],
      "name": "getLowSVG",
      "outputs": [
        {
          "internalType": "string",
          "name": "",
          "type": "string"
        }
      ],
      "stateMutability": "view",
      "type": "function"
    },
    {
      "inputs": [],
      "name": "getPriceFeed",
      "outputs": [
        {
          "internalType": "contract AggregatorV3Interface",
          "name": "",
          "type": "address"
        }
      ],
      "stateMutability": "view",
      "type": "function"
    },
    {
      "inputs": [],
      "name": "getTokenCounter",
      "outputs": [
        {
          "internalType": "uint256",
          "name": "",
          "type": "uint256"
        }
      ],
      "stateMutability": "view",
      "type": "function"
    },
    {
      "inputs": [
        {
          "internalType": "address",
          "name": "owner",
          "type": "address"
        },
        {
          "internalType": "address",
          "name": "operator",
          "type": "address"
        }
      ],
      "name": "isApprovedForAll",
      "outputs": [
        {
          "internalType": "bool",
          "name": "",
          "type": "bool"
        }
      ],
      "stateMutability": "view",
      "type": "function"
    },
    {
      "inputs": [
        {
          "internalType": "int256",
          "name": "highValue",
          "type": "int256"
        }
      ],
      "name": "mintNft",
      "outputs": [],
      "stateMutability": "nonpayable",
      "type": "function"
    },
    {
      "inputs": [],
      "name": "name",
      "outputs": [
        {
          "internalType": "string",
          "name": "",
          "type": "string"
        }
      ],
      "stateMutability": "view",
      "type": "function"
    },
    {
      "inputs": [],
      "name": "owner",
      "outputs": [
        {
          "internalType": "address",
          "name": "",
          "type": "address"
        }
      ],
      "stateMutability": "view",
      "type": "function"
    },
    {
      "inputs": [
        {
          "internalType": "uint256",
          "name": "tokenId",
          "type": "uint256"
        }
      ],
      "name": "ownerOf",
      "outputs": [
        {
          "internalType": "address",
          "name": "",
          "type": "address"
        }
      ],
      "stateMutability": "view",
      "type": "function"
    },
    {
      "inputs": [],
      "name": "renounceOwnership",
      "outputs": [],
      "stateMutability": "nonpayable",
      "type": "function"
    },
    {
      "inputs": [
        {
          "internalType": "address",
          "name": "from",
          "type": "address"
        },
        {
          "internalType": "address",
          "name": "to",
          "type": "address"
        },
        {
          "internalType": "uint256",
          "name": "tokenId",
          "type": "uint256"
        }
      ],
      "name": "safeTransferFrom",
      "outputs": [],
      "stateMutability": "nonpayable",
      "type": "function"
    },
    {
      "inputs": [
        {
          "internalType": "address",
          "name": "from",
          "type": "address"
        },
        {
          "internalType": "address",
          "name": "to",
          "type": "address"
        },
        {
          "internalType": "uint256",
          "name": "tokenId",
          "type": "uint256"
        },
        {
          "internalType": "bytes",
          "name": "data",
          "type": "bytes"
        }
      ],
      "name": "safeTransferFrom",
      "outputs": [],
      "stateMutability": "nonpayable",
      "type": "function"
    },
    {
      "inputs": [
        {
          "internalType": "address",
          "name": "operator",
          "type": "address"
        },
        {
          "internalType": "bool",
          "name": "approved",
          "type": "bool"
        }
      ],
      "name": "setApprovalForAll",
      "outputs": [],
      "stateMutability": "nonpayable",
      "type": "function"
    },
    {
      "inputs": [
        {
          "internalType": "bytes4",
          "name": "interfaceId",
          "type": "bytes4"
        }
      ],
      "name": "supportsInterface",
      "outputs": [
        {
          "internalType": "bool",
          "name": "",
          "type": "bool"
        }
      ],
      "stateMutability": "view",
      "type": "function"
    },
    {
      "inputs": [
        {
          "internalType": "string",
          "name": "svg",
          "type": "string"
        }
      ],
      "name": "svgToImageURI",
      "outputs": [
        {
          "internalType": "string",
          "name": "",
          "type": "string"
        }
      ],
      "stateMutability": "pure",
      "type": "function"
    },
    {
      "inputs": [],
      "name": "symbol",
      "outputs": [
        {
          "internalType": "string",
          "name": "",
          "type": "string"
        }
      ],
      "stateMutability": "view",
      "type": "function"
    },
    {
      "inputs": [
        {
          "internalType": "uint256",
          "name": "tokenId",
          "type": "uint256"
        }
      ],
      "name": "tokenURI",
      "outputs": [
        {
          "internalType": "string",
          "name": "",
          "type": "string"
        }
      ],
      "stateMutability": "view",
      "type": "function"
    },
    {
      "inputs": [
        {
          "internalType": "address",
          "name": "from",
          "type": "address"
        },
        {
          "internalType": "address",
          "name": "to",
          "type": "address"
        },
        {
          "internalType": "uint256",
          "name": "tokenId",
          "type": "uint256"
        }
      ],
      "name": "transferFrom",
      "outputs": [],
      "stateMutability": "nonpayable",
      "type": "function"
    },
    {
      "inputs": [
        {
          "internalType": "address",
          "name": "newOwner",
          "type": "address"
        }
      ],
      "name": "transferOwnership",
      "outputs": [],
      "stateMutability": "nonpayable",
      "type": "function"
    }
  ],
  "bytecode": "0x60a06040523480156200001157600080fd5b5060405162003d8338038062003d83833981810160405281019062000037919062000743565b6040518060400160405280600f81526020017f44796e616d696320535647204e465400000000000000000000000000000000008152506040518060400160405280600381526020017f44534e00000000000000000000000000000000000000000000000000000000008152508160009080519060200190620000bb92919062000491565b508060019080519060200190620000d492919062000491565b505050620000f7620000eb6200019160201b60201c565b6200019960201b60201c565b60006007819055508273ffffffffffffffffffffffffffffffffffffffff1660808173ffffffffffffffffffffffffffffffffffffffff1660601b8152505062000147826200025f60201b60201c565b600890805190602001906200015e92919062000491565b5062000170816200025f60201b60201c565b600990805190602001906200018792919062000491565b5050505062000a2e565b600033905090565b6000600660009054906101000a900473ffffffffffffffffffffffffffffffffffffffff16905081600660006101000a81548173ffffffffffffffffffffffffffffffffffffffff021916908373ffffffffffffffffffffffffffffffffffffffff1602179055508173ffffffffffffffffffffffffffffffffffffffff168173ffffffffffffffffffffffffffffffffffffffff167f8be0079c531659141344cd1fd0a4f28419497f9722a3daafe3b4186f6b6457e060405160405180910390a35050565b606060006040518060400160405280601a81526020017f646174613a696d6167652f7376672b786d6c3b6261736536342c00000000000081525090506000620002d484604051602001620002b491906200082a565b6040516020818303038152906040526200030360201b620010341760201c565b90508181604051602001620002eb92919062000843565b60405160208183030381529060405292505050919050565b606060008251141562000328576040518060200160405280600081525090506200048c565b600060405180606001604052806040815260200162003d4360409139905060006003600285516200035a9190620008a4565b62000366919062000930565b600462000374919062000968565b90506000602082620003879190620008a4565b67ffffffffffffffff811115620003a357620003a2620005d5565b5b6040519080825280601f01601f191660200182016040528015620003d65781602001600182028036833780820191505090505b509050818152600183018586518101602084015b8183101562000447576003830192508251603f8160121c168501518253600182019150603f81600c1c168501518253600182019150603f8160061c168501518253600182019150603f8116850151825360018201915050620003ea565b600389510660018114620004645760028114620004755762000480565b613d3d60f01b600283035262000480565b603d60f81b60018303525b50505050508093505050505b919050565b8280546200049f90620009f8565b90600052602060002090601f016020900481019282620004c357600085556200050f565b82601f10620004de57805160ff19168380011785556200050f565b828001600101855582156200050f579182015b828111156200050e578251825591602001919060010190620004f1565b5b5090506200051e919062000522565b5090565b5b808211156200053d57600081600090555060010162000523565b5090565b6000604051905090565b600080fd5b600080fd5b600073ffffffffffffffffffffffffffffffffffffffff82169050919050565b6000620005828262000555565b9050919050565b620005948162000575565b8114620005a057600080fd5b50565b600081519050620005b48162000589565b92915050565b600080fd5b600080fd5b6000601f19601f8301169050919050565b7f4e487b7100000000000000000000000000000000000000000000000000000000600052604160045260246000fd5b6200060f82620005c4565b810181811067ffffffffffffffff82111715620006315762000630620005d5565b5b80604052505050565b60006200064662000541565b905062000654828262000604565b919050565b600067ffffffffffffffff821115620006775762000676620005d5565b5b6200068282620005c4565b9050602081019050919050565b60005b83811015620006af57808201518184015260208101905062000692565b83811115620006bf576000848401525b50505050565b6000620006dc620006d68462000659565b6200063a565b905082815260208101848484011115620006fb57620006fa620005bf565b5b620007088482856200068f565b509392505050565b600082601f830112620007285762000727620005ba565b5b81516200073a848260208601620006c5565b91505092915050565b6000806000606084860312156200075f576200075e6200054b565b5b60006200076f86828701620005a3565b935050602084015167ffffffffffffffff81111562000793576200079262000550565b5b620007a18682870162000710565b925050604084015167ffffffffffffffff811115620007c557620007c462000550565b5b620007d38682870162000710565b9150509250925092565b600081519050919050565b600081905092915050565b60006200080082620007dd565b6200080c8185620007e8565b93506200081e8185602086016200068f565b80840191505092915050565b6000620008388284620007f3565b915081905092915050565b6000620008518285620007f3565b91506200085f8284620007f3565b91508190509392505050565b6000819050919050565b7f4e487b7100000000000000000000000000000000000000000000000000000000600052601160045260246000fd5b6000620008b1826200086b565b9150620008be836200086b565b9250827fffffffffffffffffffffffffffffffffffffffffffffffffffffffffffffffff03821115620008f657620008f562000875565b5b828201905092915050565b7f4e487b7100000000000000000000000000000000000000000000000000000000600052601260045260246000fd5b60006200093d826200086b565b91506200094a836200086b565b9250826200095d576200095c62000901565b5b828204905092915050565b600062000975826200086b565b915062000982836200086b565b9250817fffffffffffffffffffffffffffffffffffffffffffffffffffffffffffffffff0483118215151615620009be57620009bd62000875565b5b828202905092915050565b7f4e487b7100000000000000000000000000000000000000000000000000000000600052602260045260246000fd5b6000600282049050600182168062000a1157607f821691505b6020821081141562000a285762000a27620009c9565b5b50919050565b60805160601c6132ef62000a5460003960008181610b6e0152610c4f01526132ef6000f3fe608060405234801561001057600080fd5b50600436106101425760003560e01c8063715018a6116100b8578063a22cb4651161007c578063a22cb46514610365578063b88d4fde14610381578063c87b56dd1461039d578063e985e9c5146103cd578063ed28a122146103fd578063f2fde38b1461041b57610142565b8063715018a6146102e357806376f6056b146102ed5780638da5cb5b1461030b57806395d89b41146103295780639e87a5cd1461034757610142565b806323b872dd1161010a57806323b872dd146101fd57806330d871c61461021957806342842e0e146102495780636352211e146102655780636e02007d1461029557806370a08231146102b357610142565b806301ffc9a71461014757806306fdde0314610177578063081812fc14610195578063095ea7b3146101c55780631e930812146101e1575b600080fd5b610161600480360381019061015c9190611e58565b610437565b60405161016e9190611ea0565b60405180910390f35b61017f610519565b60405161018c9190611f54565b60405180910390f35b6101af60048036038101906101aa9190611fac565b6105ab565b6040516101bc919061201a565b60405180910390f35b6101df60048036038101906101da9190612061565b6105f1565b005b6101fb60048036038101906101f691906120d7565b610709565b005b61021760048036038101906102129190612104565b610781565b005b610233600480360381019061022e919061228c565b6107e1565b6040516102409190611f54565b60405180910390f35b610263600480360381019061025e9190612104565b610874565b005b61027f600480360381019061027a9190611fac565b610894565b60405161028c919061201a565b60405180910390f35b61029d610946565b6040516102aa91906122e4565b60405180910390f35b6102cd60048036038101906102c891906122ff565b610950565b6040516102da91906122e4565b60405180910390f35b6102eb610a08565b005b6102f5610a1c565b6040516103029190611f54565b60405180910390f35b610313610aae565b604051610320919061201a565b60405180910390f35b610331610ad8565b60405161033e9190611f54565b60405180910390f35b61034f610b6a565b60405161035c919061238b565b60405180910390f35b61037f600480360381019061037a91906123d2565b610b92565b005b61039b600480360381019061039691906124b3565b610ba8565b005b6103b760048036038101906103b29190611fac565b610c0a565b6040516103c49190611f54565b60405180910390f35b6103e760048036038101906103e29190612536565b610e8a565b6040516103f49190611ea0565b60405180910390f35b610405610f1e565b6040516104129190611f54565b60405180910390f35b610435600480360381019061043091906122ff565b610fb0565b005b60007f80ac58cd000000000000000000000000000000000000000000000000000000007bffffffffffffffffffffffffffffffffffffffffffffffffffffffff1916827bffffffffffffffffffffffffffffffffffffffffffffffffffffffff1916148061050257507f5b5e139f000000000000000000000000000000000000000000000000000000007bffffffffffffffffffffffffffffffffffffffffffffffffffffffff1916827bffffffffffffffffffffffffffffffffffffffffffffffffffffffff1916145b806105125750610511826111ad565b5b9050919050565b606060008054610528906125a5565b80601f0160208091040260200160405190810160405280929190818152602001828054610554906125a5565b80156105a15780601f10610576576101008083540402835291602001916105a1565b820191906000526020600020905b81548152906001019060200180831161058457829003601f168201915b5050505050905090565b60006105b682611217565b6004600083815260200190815260200160002060009054906101000a900473ffffffffffffffffffffffffffffffffffffffff169050919050565b60006105fc82610894565b90508073ffffffffffffffffffffffffffffffffffffffff168373ffffffffffffffffffffffffffffffffffffffff16141561066d576040517f08c379a000000000000000000000000000000000000000000000000000000000815260040161066490612649565b60405180910390fd5b8073ffffffffffffffffffffffffffffffffffffffff1661068c611262565b73ffffffffffffffffffffffffffffffffffffffff1614806106bb57506106ba816106b5611262565b610e8a565b5b6106fa576040517f08c379a00000000000000000000000000000000000000000000000000000000081526004016106f1906126db565b60405180910390fd5b610704838361126a565b505050565b80600a600060075481526020019081526020016000208190555061072f33600754611323565b600160075461073e919061272a565b6007819055506007547f882d3b5a729a8bb95cf6c0083c99b42ecd9637123d4425bd7b768877fd8af8b082604051610776919061278f565b60405180910390a250565b61079261078c611262565b82611341565b6107d1576040517f08c379a00000000000000000000000000000000000000000000000000000000081526004016107c89061281c565b60405180910390fd5b6107dc8383836113d6565b505050565b606060006040518060400160405280601a81526020017f646174613a696d6167652f7376672b786d6c3b6261736536342c00000000000081525090506000610847846040516020016108339190612878565b604051602081830303815290604052611034565b9050818160405160200161085c92919061288f565b60405160208183030381529060405292505050919050565b61088f83838360405180602001604052806000815250610ba8565b505050565b6000806002600084815260200190815260200160002060009054906101000a900473ffffffffffffffffffffffffffffffffffffffff169050600073ffffffffffffffffffffffffffffffffffffffff168173ffffffffffffffffffffffffffffffffffffffff16141561093d576040517f08c379a0000000000000000000000000000000000000000000000000000000008152600401610934906128ff565b60405180910390fd5b80915050919050565b6000600754905090565b60008073ffffffffffffffffffffffffffffffffffffffff168273ffffffffffffffffffffffffffffffffffffffff1614156109c1576040517f08c379a00000000000000000000000000000000000000000000000000000000081526004016109b890612991565b60405180910390fd5b600360008373ffffffffffffffffffffffffffffffffffffffff1673ffffffffffffffffffffffffffffffffffffffff168152602001908152602001600020549050919050565b610a1061163d565b610a1a60006116bb565b565b606060098054610a2b906125a5565b80601f0160208091040260200160405190810160405280929190818152602001828054610a57906125a5565b8015610aa45780601f10610a7957610100808354040283529160200191610aa4565b820191906000526020600020905b815481529060010190602001808311610a8757829003601f168201915b5050505050905090565b6000600660009054906101000a900473ffffffffffffffffffffffffffffffffffffffff16905090565b606060018054610ae7906125a5565b80601f0160208091040260200160405190810160405280929190818152602001828054610b13906125a5565b8015610b605780601f10610b3557610100808354040283529160200191610b60565b820191906000526020600020905b815481529060010190602001808311610b4357829003601f168201915b5050505050905090565b60007f0000000000000000000000000000000000000000000000000000000000000000905090565b610ba4610b9d611262565b8383611781565b5050565b610bb9610bb3611262565b83611341565b610bf8576040517f08c379a0000000000000000000000000000000000000000000000000000000008152600401610bef9061281c565b60405180910390fd5b610c04848484846118ee565b50505050565b6060610c158261194a565b610c4b576040517f6df5edae00000000000000000000000000000000000000000000000000000000815260040160405180910390fd5b60007f000000000000000000000000000000000000000000000000000000000000000073ffffffffffffffffffffffffffffffffffffffff1663feaf968c6040518163ffffffff1660e01b815260040160a06040518083038186803b158015610cb357600080fd5b505afa158015610cc7573d6000803e3d6000fd5b505050506040513d601f19601f82011682018060405250810190610ceb9190612a1d565b505050915050600060088054610d00906125a5565b80601f0160208091040260200160405190810160405280929190818152602001828054610d2c906125a5565b8015610d795780601f10610d4e57610100808354040283529160200191610d79565b820191906000526020600020905b815481529060010190602001808311610d5c57829003601f168201915b50505050509050600a6000858152602001908152602001600020548212610e285760098054610da7906125a5565b80601f0160208091040260200160405190810160405280929190818152602001828054610dd3906125a5565b8015610e205780601f10610df557610100808354040283529160200191610e20565b820191906000526020600020905b815481529060010190602001808311610e0357829003601f168201915b505050505090505b610e306119b6565b610e61610e3b610519565b83604051602001610e4d929190612c60565b604051602081830303815290604052611034565b604051602001610e7292919061288f565b60405160208183030381529060405292505050919050565b6000600560008473ffffffffffffffffffffffffffffffffffffffff1673ffffffffffffffffffffffffffffffffffffffff16815260200190815260200160002060008373ffffffffffffffffffffffffffffffffffffffff1673ffffffffffffffffffffffffffffffffffffffff16815260200190815260200160002060009054906101000a900460ff16905092915050565b606060088054610f2d906125a5565b80601f0160208091040260200160405190810160405280929190818152602001828054610f59906125a5565b8015610fa65780601f10610f7b57610100808354040283529160200191610fa6565b820191906000526020600020905b815481529060010190602001808311610f8957829003601f168201915b5050505050905090565b610fb861163d565b600073ffffffffffffffffffffffffffffffffffffffff168173ffffffffffffffffffffffffffffffffffffffff161415611028576040517f08c379a000000000000000000000000000000000000000000000000000000000815260040161101f90612d22565b60405180910390fd5b611031816116bb565b50565b6060600082511415611057576040518060200160405280600081525090506111a8565b600060405180606001604052806040815260200161327a6040913990506000600360028551611086919061272a565b6110909190612d71565b600461109c9190612da2565b905060006020826110ad919061272a565b67ffffffffffffffff8111156110c6576110c5612161565b5b6040519080825280601f01601f1916602001820160405280156110f85781602001600182028036833780820191505090505b509050818152600183018586518101602084015b81831015611167576003830192508251603f8160121c168501518253600182019150603f81600c1c168501518253600182019150603f8160061c168501518253600182019150603f811685015182536001820191505061110c565b60038951066001811461118157600281146111915761119c565b613d3d60f01b600283035261119c565b603d60f81b60018303525b50505050508093505050505b919050565b60007f01ffc9a7000000000000000000000000000000000000000000000000000000007bffffffffffffffffffffffffffffffffffffffffffffffffffffffff1916827bffffffffffffffffffffffffffffffffffffffffffffffffffffffff1916149050919050565b6112208161194a565b61125f576040517f08c379a0000000000000000000000000000000000000000000000000000000008152600401611256906128ff565b60405180910390fd5b50565b600033905090565b816004600083815260200190815260200160002060006101000a81548173ffffffffffffffffffffffffffffffffffffffff021916908373ffffffffffffffffffffffffffffffffffffffff160217905550808273ffffffffffffffffffffffffffffffffffffffff166112dd83610894565b73ffffffffffffffffffffffffffffffffffffffff167f8c5be1e5ebec7d5bd14f71427d1e84f3dd0314c0f7b2291e5b200ac8c7c3b92560405160405180910390a45050565b61133d8282604051806020016040528060008152506119f3565b5050565b60008061134d83610894565b90508073ffffffffffffffffffffffffffffffffffffffff168473ffffffffffffffffffffffffffffffffffffffff16148061138f575061138e8185610e8a565b5b806113cd57508373ffffffffffffffffffffffffffffffffffffffff166113b5846105ab565b73ffffffffffffffffffffffffffffffffffffffff16145b91505092915050565b8273ffffffffffffffffffffffffffffffffffffffff166113f682610894565b73ffffffffffffffffffffffffffffffffffffffff161461144c576040517f08c379a000000000000000000000000000000000000000000000000000000000815260040161144390612e6e565b60405180910390fd5b600073ffffffffffffffffffffffffffffffffffffffff168273ffffffffffffffffffffffffffffffffffffffff1614156114bc576040517f08c379a00000000000000000000000000000000000000000000000000000000081526004016114b390612f00565b60405180910390fd5b6114c7838383611a4e565b6114d260008261126a565b6001600360008573ffffffffffffffffffffffffffffffffffffffff1673ffffffffffffffffffffffffffffffffffffffff16815260200190815260200160002060008282546115229190612f20565b925050819055506001600360008473ffffffffffffffffffffffffffffffffffffffff1673ffffffffffffffffffffffffffffffffffffffff1681526020019081526020016000206000828254611579919061272a565b92505081905550816002600083815260200190815260200160002060006101000a81548173ffffffffffffffffffffffffffffffffffffffff021916908373ffffffffffffffffffffffffffffffffffffffff160217905550808273ffffffffffffffffffffffffffffffffffffffff168473ffffffffffffffffffffffffffffffffffffffff167fddf252ad1be2c89b69c2b068fc378daa952ba7f163c4a11628f55a4df523b3ef60405160405180910390a4611638838383611a53565b505050565b611645611262565b73ffffffffffffffffffffffffffffffffffffffff16611663610aae565b73ffffffffffffffffffffffffffffffffffffffff16146116b9576040517f08c379a00000000000000000000000000000000000000000000000000000000081526004016116b090612fa0565b60405180910390fd5b565b6000600660009054906101000a900473ffffffffffffffffffffffffffffffffffffffff16905081600660006101000a81548173ffffffffffffffffffffffffffffffffffffffff021916908373ffffffffffffffffffffffffffffffffffffffff1602179055508173ffffffffffffffffffffffffffffffffffffffff168173ffffffffffffffffffffffffffffffffffffffff167f8be0079c531659141344cd1fd0a4f28419497f9722a3daafe3b4186f6b6457e060405160405180910390a35050565b8173ffffffffffffffffffffffffffffffffffffffff168373ffffffffffffffffffffffffffffffffffffffff1614156117f0576040517f08c379a00000000000000000000000000000000000000000000000000000000081526004016117e79061300c565b60405180910390fd5b80600560008573ffffffffffffffffffffffffffffffffffffffff1673ffffffffffffffffffffffffffffffffffffffff16815260200190815260200160002060008473ffffffffffffffffffffffffffffffffffffffff1673ffffffffffffffffffffffffffffffffffffffff16815260200190815260200160002060006101000a81548160ff0219169083151502179055508173ffffffffffffffffffffffffffffffffffffffff168373ffffffffffffffffffffffffffffffffffffffff167f17307eab39ab6107e8899845ad3d59bd9653f200f220920489ca2b5937696c31836040516118e19190611ea0565b60405180910390a3505050565b6118f98484846113d6565b61190584848484611a58565b611944576040517f08c379a000000000000000000000000000000000000000000000000000000000815260040161193b9061309e565b60405180910390fd5b50505050565b60008073ffffffffffffffffffffffffffffffffffffffff166002600084815260200190815260200160002060009054906101000a900473ffffffffffffffffffffffffffffffffffffffff1673ffffffffffffffffffffffffffffffffffffffff1614159050919050565b60606040518060400160405280601d81526020017f646174613a6170706c69636174696f6e2f6a736f6e3b6261736536342c000000815250905090565b6119fd8383611bef565b611a0a6000848484611a58565b611a49576040517f08c379a0000000000000000000000000000000000000000000000000000000008152600401611a409061309e565b60405180910390fd5b505050565b505050565b505050565b6000611a798473ffffffffffffffffffffffffffffffffffffffff16611dc9565b15611be2578373ffffffffffffffffffffffffffffffffffffffff1663150b7a02611aa2611262565b8786866040518563ffffffff1660e01b8152600401611ac49493929190613113565b602060405180830381600087803b158015611ade57600080fd5b505af1925050508015611b0f57506040513d601f19601f82011682018060405250810190611b0c9190613174565b60015b611b92573d8060008114611b3f576040519150601f19603f3d011682016040523d82523d6000602084013e611b44565b606091505b50600081511415611b8a576040517f08c379a0000000000000000000000000000000000000000000000000000000008152600401611b819061309e565b60405180910390fd5b805181602001fd5b63150b7a0260e01b7bffffffffffffffffffffffffffffffffffffffffffffffffffffffff1916817bffffffffffffffffffffffffffffffffffffffffffffffffffffffff191614915050611be7565b600190505b949350505050565b600073ffffffffffffffffffffffffffffffffffffffff168273ffffffffffffffffffffffffffffffffffffffff161415611c5f576040517f08c379a0000000000000000000000000000000000000000000000000000000008152600401611c56906131ed565b60405180910390fd5b611c688161194a565b15611ca8576040517f08c379a0000000000000000000000000000000000000000000000000000000008152600401611c9f90613259565b60405180910390fd5b611cb460008383611a4e565b6001600360008473ffffffffffffffffffffffffffffffffffffffff1673ffffffffffffffffffffffffffffffffffffffff1681526020019081526020016000206000828254611d04919061272a565b92505081905550816002600083815260200190815260200160002060006101000a81548173ffffffffffffffffffffffffffffffffffffffff021916908373ffffffffffffffffffffffffffffffffffffffff160217905550808273ffffffffffffffffffffffffffffffffffffffff16600073ffffffffffffffffffffffffffffffffffffffff167fddf252ad1be2c89b69c2b068fc378daa952ba7f163c4a11628f55a4df523b3ef60405160405180910390a4611dc560008383611a53565b5050565b6000808273ffffffffffffffffffffffffffffffffffffffff163b119050919050565b6000604051905090565b600080fd5b600080fd5b60007fffffffff0000000000000000000000000000000000000000000000000000000082169050919050565b611e3581611e00565b8114611e4057600080fd5b50565b600081359050611e5281611e2c565b92915050565b600060208284031215611e6e57611e6d611df6565b5b6000611e7c84828501611e43565b91505092915050565b60008115159050919050565b611e9a81611e85565b82525050565b6000602082019050611eb56000830184611e91565b92915050565b600081519050919050565b600082825260208201905092915050565b60005b83811015611ef5578082015181840152602081019050611eda565b83811115611f04576000848401525b50505050565b6000601f19601f8301169050919050565b6000611f2682611ebb565b611f308185611ec6565b9350611f40818560208601611ed7565b611f4981611f0a565b840191505092915050565b60006020820190508181036000830152611f6e8184611f1b565b905092915050565b6000819050919050565b611f8981611f76565b8114611f9457600080fd5b50565b600081359050611fa681611f80565b92915050565b600060208284031215611fc257611fc1611df6565b5b6000611fd084828501611f97565b91505092915050565b600073ffffffffffffffffffffffffffffffffffffffff82169050919050565b600061200482611fd9565b9050919050565b61201481611ff9565b82525050565b600060208201905061202f600083018461200b565b92915050565b61203e81611ff9565b811461204957600080fd5b50565b60008135905061205b81612035565b92915050565b6000806040838503121561207857612077611df6565b5b60006120868582860161204c565b925050602061209785828601611f97565b9150509250929050565b6000819050919050565b6120b4816120a1565b81146120bf57600080fd5b50565b6000813590506120d1816120ab565b92915050565b6000602082840312156120ed576120ec611df6565b5b60006120fb848285016120c2565b91505092915050565b60008060006060848603121561211d5761211c611df6565b5b600061212b8682870161204c565b935050602061213c8682870161204c565b925050604061214d86828701611f97565b9150509250925092565b600080fd5b600080fd5b7f4e487b7100000000000000000000000000000000000000000000000000000000600052604160045260246000fd5b61219982611f0a565b810181811067ffffffffffffffff821117156121b8576121b7612161565b5b80604052505050565b60006121cb611dec565b90506121d78282612190565b919050565b600067ffffffffffffffff8211156121f7576121f6612161565b5b61220082611f0a565b9050602081019050919050565b82818337600083830152505050565b600061222f61222a846121dc565b6121c1565b90508281526020810184848401111561224b5761224a61215c565b5b61225684828561220d565b509392505050565b600082601f83011261227357612272612157565b5b813561228384826020860161221c565b91505092915050565b6000602082840312156122a2576122a1611df6565b5b600082013567ffffffffffffffff8111156122c0576122bf611dfb565b5b6122cc8482850161225e565b91505092915050565b6122de81611f76565b82525050565b60006020820190506122f960008301846122d5565b92915050565b60006020828403121561231557612314611df6565b5b60006123238482850161204c565b91505092915050565b6000819050919050565b600061235161234c61234784611fd9565b61232c565b611fd9565b9050919050565b600061236382612336565b9050919050565b600061237582612358565b9050919050565b6123858161236a565b82525050565b60006020820190506123a0600083018461237c565b92915050565b6123af81611e85565b81146123ba57600080fd5b50565b6000813590506123cc816123a6565b92915050565b600080604083850312156123e9576123e8611df6565b5b60006123f78582860161204c565b9250506020612408858286016123bd565b9150509250929050565b600067ffffffffffffffff82111561242d5761242c612161565b5b61243682611f0a565b9050602081019050919050565b600061245661245184612412565b6121c1565b9050828152602081018484840111156124725761247161215c565b5b61247d84828561220d565b509392505050565b600082601f83011261249a57612499612157565b5b81356124aa848260208601612443565b91505092915050565b600080600080608085870312156124cd576124cc611df6565b5b60006124db8782880161204c565b94505060206124ec8782880161204c565b93505060406124fd87828801611f97565b925050606085013567ffffffffffffffff81111561251e5761251d611dfb565b5b61252a87828801612485565b91505092959194509250565b6000806040838503121561254d5761254c611df6565b5b600061255b8582860161204c565b925050602061256c8582860161204c565b9150509250929050565b7f4e487b7100000000000000000000000000000000000000000000000000000000600052602260045260246000fd5b600060028204905060018216806125bd57607f821691505b602082108114156125d1576125d0612576565b5b50919050565b7f4552433732313a20617070726f76616c20746f2063757272656e74206f776e6560008201527f7200000000000000000000000000000000000000000000000000000000000000602082015250565b6000612633602183611ec6565b915061263e826125d7565b604082019050919050565b6000602082019050818103600083015261266281612626565b9050919050565b7f4552433732313a20617070726f76652063616c6c6572206973206e6f7420746f60008201527f6b656e206f776e6572206e6f7220617070726f76656420666f7220616c6c0000602082015250565b60006126c5603e83611ec6565b91506126d082612669565b604082019050919050565b600060208201905081810360008301526126f4816126b8565b9050919050565b7f4e487b7100000000000000000000000000000000000000000000000000000000600052601160045260246000fd5b600061273582611f76565b915061274083611f76565b9250827fffffffffffffffffffffffffffffffffffffffffffffffffffffffffffffffff03821115612775576127746126fb565b5b828201905092915050565b612789816120a1565b82525050565b60006020820190506127a46000830184612780565b92915050565b7f4552433732313a2063616c6c6572206973206e6f7420746f6b656e206f776e6560008201527f72206e6f7220617070726f766564000000000000000000000000000000000000602082015250565b6000612806602e83611ec6565b9150612811826127aa565b604082019050919050565b60006020820190508181036000830152612835816127f9565b9050919050565b600081905092915050565b600061285282611ebb565b61285c818561283c565b935061286c818560208601611ed7565b80840191505092915050565b60006128848284612847565b915081905092915050565b600061289b8285612847565b91506128a78284612847565b91508190509392505050565b7f4552433732313a20696e76616c696420746f6b656e2049440000000000000000600082015250565b60006128e9601883611ec6565b91506128f4826128b3565b602082019050919050565b60006020820190508181036000830152612918816128dc565b9050919050565b7f4552433732313a2061646472657373207a65726f206973206e6f74206120766160008201527f6c6964206f776e65720000000000000000000000000000000000000000000000602082015250565b600061297b602983611ec6565b91506129868261291f565b604082019050919050565b600060208201905081810360008301526129aa8161296e565b9050919050565b600069ffffffffffffffffffff82169050919050565b6129d0816129b1565b81146129db57600080fd5b50565b6000815190506129ed816129c7565b92915050565b600081519050612a02816120ab565b92915050565b600081519050612a1781611f80565b92915050565b600080600080600060a08688031215612a3957612a38611df6565b5b6000612a47888289016129de565b9550506020612a58888289016129f3565b9450506040612a6988828901612a08565b9350506060612a7a88828901612a08565b9250506080612a8b888289016129de565b9150509295509295909350565b7f7b226e616d65223a220000000000000000000000000000000000000000000000600082015250565b6000612ace60098361283c565b9150612ad982612a98565b600982019050919050565b7f222c20226465736372697074696f6e223a22416e204e4654207468617420636860008201527f616e676573206261736564206f6e2074686520436861696e6c696e6b2046656560208201527f64222c2000000000000000000000000000000000000000000000000000000000604082015250565b6000612b6660448361283c565b9150612b7182612ae4565b604482019050919050565b7f2261747472696275746573223a205b7b2274726169745f74797065223a20226360008201527f6f6f6c6e657373222c202276616c7565223a203130307d5d2c2022696d61676560208201527f223a220000000000000000000000000000000000000000000000000000000000604082015250565b6000612bfe60438361283c565b9150612c0982612b7c565b604382019050919050565b7f227d000000000000000000000000000000000000000000000000000000000000600082015250565b6000612c4a60028361283c565b9150612c5582612c14565b600282019050919050565b6000612c6b82612ac1565b9150612c778285612847565b9150612c8282612b59565b9150612c8d82612bf1565b9150612c998284612847565b9150612ca482612c3d565b91508190509392505050565b7f4f776e61626c653a206e6577206f776e657220697320746865207a65726f206160008201527f6464726573730000000000000000000000000000000000000000000000000000602082015250565b6000612d0c602683611ec6565b9150612d1782612cb0565b604082019050919050565b60006020820190508181036000830152612d3b81612cff565b9050919050565b7f4e487b7100000000000000000000000000000000000000000000000000000000600052601260045260246000fd5b6000612d7c82611f76565b9150612d8783611f76565b925082612d9757612d96612d42565b5b828204905092915050565b6000612dad82611f76565b9150612db883611f76565b9250817fffffffffffffffffffffffffffffffffffffffffffffffffffffffffffffffff0483118215151615612df157612df06126fb565b5b828202905092915050565b7f4552433732313a207472616e736665722066726f6d20696e636f72726563742060008201527f6f776e6572000000000000000000000000000000000000000000000000000000602082015250565b6000612e58602583611ec6565b9150612e6382612dfc565b604082019050919050565b60006020820190508181036000830152612e8781612e4b565b9050919050565b7f4552433732313a207472616e7366657220746f20746865207a65726f2061646460008201527f7265737300000000000000000000000000000000000000000000000000000000602082015250565b6000612eea602483611ec6565b9150612ef582612e8e565b604082019050919050565b60006020820190508181036000830152612f1981612edd565b9050919050565b6000612f2b82611f76565b9150612f3683611f76565b925082821015612f4957612f486126fb565b5b828203905092915050565b7f4f776e61626c653a2063616c6c6572206973206e6f7420746865206f776e6572600082015250565b6000612f8a602083611ec6565b9150612f9582612f54565b602082019050919050565b60006020820190508181036000830152612fb981612f7d565b9050919050565b7f4552433732313a20617070726f766520746f2063616c6c657200000000000000600082015250565b6000612ff6601983611ec6565b915061300182612fc0565b602082019050919050565b6000602082019050818103600083015261302581612fe9565b9050919050565b7f4552433732313a207472616e7366657220746f206e6f6e20455243373231526560008201527f63656976657220696d706c656d656e7465720000000000000000000000000000602082015250565b6000613088603283611ec6565b91506130938261302c565b604082019050919050565b600060208201905081810360008301526130b78161307b565b9050919050565b600081519050919050565b600082825260208201905092915050565b60006130e5826130be565b6130ef81856130c9565b93506130ff818560208601611ed7565b61310881611f0a565b840191505092915050565b6000608082019050613128600083018761200b565b613135602083018661200b565b61314260408301856122d5565b818103606083015261315481846130da565b905095945050505050565b60008151905061316e81611e2c565b92915050565b60006020828403121561318a57613189611df6565b5b60006131988482850161315f565b91505092915050565b7f4552433732313a206d696e7420746f20746865207a65726f2061646472657373600082015250565b60006131d7602083611ec6565b91506131e2826131a1565b602082019050919050565b60006020820190508181036000830152613206816131ca565b9050919050565b7f4552433732313a20746f6b656e20616c7265616479206d696e74656400000000600082015250565b6000613243601c83611ec6565b915061324e8261320d565b602082019050919050565b6000602082019050818103600083015261327281613236565b905091905056fe4142434445464748494a4b4c4d4e4f505152535455565758595a6162636465666768696a6b6c6d6e6f707172737475767778797a303132333435363738392b2fa2646970667358221220db56753ce2e8dcfe235ad2551c939f602f36e88b2e9b776d79036f978bca8b8c64736f6c634300080800334142434445464748494a4b4c4d4e4f505152535455565758595a6162636465666768696a6b6c6d6e6f707172737475767778797a303132333435363738392b2f",
  "linkReferences": {},
  "deployedLinkReferences": {}
}